:020000040800F2
:100000000080012049470008A5450008A902000812
:10001000A7450008A9450008AB45000800000000FE
:1000200000000000000000000000000099470008E8
:10003000AD450008000000002F020008419E0008A6
:100040009947000899470008994700089947000810
:100050009947000899470008994700089947000800
:1000600099470008994700089947000899470008F0
:1000700099470008994700089947000899470008E0
:1000800099470008994700089947000899470008D0
:1000900099470008994700089947000899470008C0
:1000A00099470008994700089947000899470008B0
:1000B00099470008994700089947000899470008A0
:1000C0009947000899470008994700089947000890
:1000D0009947000899470008994700089947000880
:1000E0009947000899470008994700089947000870
:1000F0009947000899470008994700089947000860
:10010000994700089947000899470008994700084F
:10011000994700089947000899470008994700083F
:10012000994700089947000899470008994700082F
:10013000994700089947000899470008994700081F
:10014000994700089947000899470008994700080F
:1001500099470008994700089947000899470008FF
:1001600099470008994700089947000899470008EF
:1001700099470008994700080000000000000000AF
:080180009947000899470008A7
:1001C00010B5054C237833B9044B13B10448AFF391
:1001D00000800123237010BD380A002000000000B9
:1001E000782D010808B5034B1BB103490348AFF351
:1001F000008008BD000000003C0A0020782D0108A6
:10020000EFF3108072B6704780F310887047344A5D
:100210001368012B04D04FF001031360314A1060C2
:10022000314A116031484FF0805101607047EFF35F
:10023000108272B62A48016891B14FF00001016046
:100240002848016829B1EFF3098121E9F00F00681E
:100250000160254909680968B1E8F00F81F3098850
:1002600082F310884EF0040E70471F4908601D4944
:100270004FF0000008601A494FF0010008601C4868
:100280001C49D0F8002041EA0201016017484FF0F4
:100290008051016018480068006800BF80F308883A
:1002A00061B662B6704700BFEFF308801EF0040F1E
:1002B00001D0EFF3098020E9F00F40F804ED1EF0C3
:1002C000040F02D080F3098801E080F3088800B5AC
:1002D00009F0B4FC5DF804EB4EF0040E704700002A
:1002E000F8170020F0170020F417002004ED00E0BC
:1002F00020ED00E00000FFFF08ED00E02DE9F04FE9
:10030000002189B080460020CDE9060103239C46E8
:10031000CDF80480019B93E8C000D3E906ABA6FBAF
:100320000601044606FB07F3BAEB040201EB4303A4
:10033000A04699466BEB0303941843EB0305A21800
:1003400045EB030318EB020449EB030506FB05F13B
:1003500007FB0411A6FB0423AAFB0A450AFB0BF0CA
:10036000AB46A2460B440BEB4001CDE902AB039137
:100370000199D1E90C0118EB080449EB0905801A31
:1003800061EB03018946DDE902AB06FB05F14B4653
:100390008046980007FB0413A6FB0445DAF1000A27
:1003A0001D44DDE902236BEB4B0B4FEA880E4FEA4D
:1003B0008B01CDF810E04FEA8A0E12EB0E0240EAF4
:1003C000987041EA9A714B41059006FB05F107FBD5
:1003D000041192469B46A6FB0423DDE904450198DF
:1003E00099462B4606FB03F307FB04379046A6FB12
:1003F0000423D0E9124514EB0A0445EB0B05A24691
:100400004846084418EB0A04AB463B4440EB0B0556
:10041000101943EB0501002871F10003019B03F162
:10042000080301932ADBDDE9062382428B4101DACE
:10043000CDE90601BCF1010C7FF46CAFDDE90601EA
:1004400003F080FA0F4B996B03F06EFB03F00CFD89
:100450000D4BD3F80C329B00C3F1200201FA02F2DB
:10046000B3F1200420FA03F040EA02005CBF41FA35
:1004700004F42043194109B0BDE8F08F404261EB1C
:100480004101D0E7580A002030580020C1070AD5A2
:10049000184B4FF040414FF080429966D96619677A
:1004A0005A679A67DA67820710D5124B4FF04041BE
:1004B0004FF08042C3F80011C3F80411C3F80811CB
:1004C000C3F80C21C3F81021C3F81421430710D539
:1004D000084B4FF040414FF08042C3F89811C3F8E9
:1004E0009C11C3F8A011C3F8A421C3F8A821C3F834
:1004F000AC2170473058002038B5094D9824224669
:10050000284600210BF0B4FA05F598702246002128
:100510000BF0AEFA0520BDE83840FFF7B7BF00BFCB
:100520003858002010B50D4C00214FF418722046A9
:100530000BF09EFA0720FFF7A9FF012318460321BD
:100540000022C4F8E43184F8E83107F0ABFE044837
:1005500064210722BDE8104007F034BD3058002068
:100560001D0C0008836F03B1C8E60020002170470E
:100570002DE9F84F836F002B58D0A0F1080100F14E
:10058000100E0026002751F8080FD1F804C0D1E959
:10059000062300FB0CF8A0FB004505EB4805121BE9
:1005A00063EB050312EB020843EB030912EB0802AD
:1005B00043EB0903D1E90CAB12196B4102FB0CFCB4
:1005C00000FB03CCA2FB0023B2EB0A02634463EB03
:1005D0000B03002A73F100002CDB964277EB03003B
:1005E000BCBF16461F467145CDD13946304603F093
:1005F000A9F9124B996B03F097FA03F035FC104BF5
:10060000D3F80C3203EB4303C3F1200201FA02F2E8
:10061000B3F1200420FA03F058BF41FA04F440EA91
:10062000020058BF20431941BDE8F88F184619460B
:10063000BDE8F88F524263EB4303CEE7580A00202F
:10064000305800202DE9F0412F4B84B0D3F81072C0
:1006500080461C461A4603F1800003F1180601A9E2
:1006600052F8083F50F8045FBB4003EB0543B24229
:1006700041F8043BF4D19822002124480BF0F8F90A
:100680000120FFF703FF94F8E8311F4A042B32D012
:100690001F4D019B686AAF6AEE6A039AD8F824106E
:1006A000181A029BDF1B002887EAE773A3EBE773A6
:1006B000B8BF40428342A2EB0602B8BF034682EABB
:1006C000E270A0EBE2709842B8BF184607F02DFE2A
:1006D000D4F81832984206DA01A8032107F0A6FBE5
:1006E000022008F02DFA01A90EC96962AA62EB6224
:1006F00004B0BDE8F081D2F81832B3F5201FC4BFB2
:10070000052382F8E831C3E730580020385800202C
:10071000580A0020014BC3E902017047580A002023
:10072000014BC3E906017047580A0020014BC3E999
:1007300004017047580A0020064B30B403F5E872F4
:10074000D2E90045D3F8E0310360C1E9004530BC8F
:10075000704700BF30580020064B30B403F5EC72F0
:10076000D2E90045D3F8E0310360C1E9004530BC6F
:10077000704700BF305800202DE9F04F83B001F1E1
:100780001803D1F878B001930D4601F1680C01F11E
:100790005C0ABBF1000F37D0B0F90020DCF8143050
:1007A000D31A1E46DF175AF8042F9A42B8BFCAF868
:1007B00000305CF8042F9A42C8BFCCF8003005F135
:1007C000600E2C460122002302FB07F806FB03887B
:1007D000A2FB06234344D4E9008918EB020849EB45
:1007E0000309E4E806897445EED1019B08359D4272
:1007F00000F10200CDD10BF1010301228B67C1F89A
:10080000902003B0BDE8F08FB0F90030CCF8143080
:10081000002600275B46C6E70368D3664368136774
:10082000F0B4946F83685367C2F8881094B10438A9
:1008300002F15C0102F1680750F8043F0E6A51F8BA
:10084000045F9B1B002BB8BF5B42AB42C8BF0B6071
:10085000B942F1D1013401239467C2F89030F0BC61
:10086000704700BF30B40023C56E046F416FD0F8ED
:100870008820C567C0F88040C0F88410C0F88C207C
:100880000366436683668367C0F8903030BC704768
:10089000D0F88820D0F88C00101A7047016E436E93
:1008A000826E9942B8BF194691420846B8BF1046B9
:1008B000704700BFF0B50346C2F120048E46B2F186
:1008C00020070EFA04FC23FA02F002F1FF354FF084
:1008D000010658BF4EFA07F706FA05F64CEA000083
:1008E000A4F1200558BF384303FA05F5C4F12007E9
:1008F00023FA07F74CEA05053D43A340C4F120075E
:10090000E34005FA07F7203C43EA07035CBF45FADA
:1009100004F423439E424EFA02F107DB7642B342CF
:1009200003DA10F1FF3041F1FF31F0BD013041F148
:100930000001F0BD0B4A1146002341F8043B04318D
:10094000536041F8043B13620B6053629362D362BD
:10095000136153619361D361136353639363D363EF
:10096000704700BF505A00200B4AD2F84832F0B40A
:1009700004460D466BB11146F1E99067864277EB6C
:10098000050001DAC1E900450133C2F84832F0BC84
:10099000704702F51071F5E7305800200B4AD2F885
:1009A0005832F0B404460D466BB11146F1E9946734
:1009B000864277EB050001DAC1E900450133C2F850
:1009C0005832F0BC704702F51471F5E7305800203A
:1009D0000B4AD2F82832F0B404460D466BB11146EA
:1009E000F1E98867B04275EB070001DAC1E900451B
:1009F0000133C2F82832F0BC704702F50871F5E700
:100A0000305800200B4AD2F83832F0B404460D4674
:100A10006BB11146F1E98C67B04275EB070001DA62
:100A2000C1E900450133C2F83832F0BC704702F525
:100A30000C71F5E7305800202DE9F04DDFF83081DA
:100A40004A4ED8F86820D8F87C50F46B08F16C0155
:100A50008AC9D21BD8F87870C91B9142A3EB05054F
:100A6000B8BF1146A9420B46B8BF2B469C4256DB85
:100A7000036BDC0502D40220BDE8F08DD8F880308D
:100A8000D8F800209342F6DB416FC9054CD5D8F861
:100A9000B0319A42EFDC002B56D100240025D6E974
:100AA00004233349A24201F5EC70AB41C0E9004593
:100AB00048DAD1F83832002B4FD101F50C71C1E979
:100AC00000450133C8F83832002400219822294813
:100AD0000AF0CEFF0420FFF7D9FCD8F8803033B3FA
:100AE0002548FFF70BFCD6E90667214B864203F544
:100AF000F872C2E9000177EB01021BDAD3F8282271
:100B0000DAB1F3E98845A04271EB050401DAC3E9E3
:100B100000010132C8F828220020BDE8F08DFFF75F
:100B2000EBFC0020BDE8F08D0124002BD8D1002083
:100B30000021D8E72046BDE8F08D03F50873C3E92E
:100B40000001E6E70124C0E708F59C70FFF7D6FB3B
:100B5000040D44EA01340D15A1E7F1E98CAB5445CD
:100B600075EB0B02ADDAC1E90045AAE7580A00208F
:100B700030580020685900203858002030B5036BE9
:100B800003F0C003C02B85B004463BD0636F03F075
:100B9000C003C02B30D0D4F8B83003F0C002C02A54
:100BA00019D003F06003602B01D005B030BDD4F83C
:100BB000A050D4F8A400D4F8A830D4F8C010144A37
:100BC00084139B13AD1301A8019502940393FFF7BF
:100BD00023FE05B030BDB4F98C00B4F98E50B4F9E1
:100BE0009030D4F8C0100190094A029501A80393EF
:100BF000FFF712FE05B030BD04F148000549FFF7CC
:100C0000BBFDC8E704300449FFF7B6FDBEE700BFEF
:100C1000D058002068590020385800202DE9F843AA
:100C2000036BD90540F18780426F02F05002402AE1
:100C3000044600F08380D0F8B82002F05002402A29
:100C40007CD003F05003402B78D0BC4DE36AD5F83C
:100C50000822BA4E9A4219D0092BC6F80832B84F6A
:100C600040F32C817B6B386BBA6BC6F80C3219469B
:100C70003060C6F8142219228A40C3F110034FF4E1
:100C80008041C5F81032FA63C5F818122046FFF704
:100C900075FF95F8E831062B4DD8DFE813F0FC001E
:100CA000D000C70007009F007B0058002046FFF7D8
:100CB000C3FE002800F0FE8001283CD1D4F8B830F3
:100CC000DA0540F13481D5F80001D5F80431D5F8C2
:100CD00008119B4F994E9842B8BF18468142D7E9F8
:100CE0000223B8BF0146084682424FEAE17106F589
:100CF000E87E8B41CEE9000180F21081052386F861
:100D0000E831904BD5F85822D3E90001002A40F091
:100D1000F580C3E91E018C49D5F848320132C5F887
:100D20005822D1E90067002B40F0DE80C1E914674A
:100D30000133C5F848320020BDE8F8837F4DFFF746
:100D4000DBFB0023C5F8E03185F8E8317EE720467B
:100D5000FFF772FE0128044600F0C2800028EAD1A5
:100D6000FFF7CAFB05F5867007C8D5F82831C5F826
:100D70000041C5F80441C5F80841C5F81841C5F857
:100D80003041C5F81C01C5F82011C5F82421C5F86B
:100D90002C31D0E70623012085F8E83107F0D0FE9A
:100DA000FFF7AAFBD5F80C31D5F81001D5F81411CE
:100DB000D5F82821C5F81C310023C5F80031C5F845
:100DC0000431C5F80831C5F81831C5F83031C5F817
:100DD0002001C5F82411C5F82C21ACE7D4F8B830AF
:100DE000DB0518D5D5F80421D5F80001D5F8083170
:100DF0005349564E8242B8BF02469342D1E902019E
:100E0000B8BF13461A4690424FEAE373C6E900237F
:100E100071EB03034EDB2046FFF70EFE002849D09E
:100E2000012888D12046FFF70DFC6AE703232046FE
:100E300085F8E831FFF706FCFFF75EFB7BE7D5F8A6
:100E400098303E4E012B7FF476AF2046FFF7F4FD3D
:100E500000285DD1052386F8E831D5F80C31D5F8A6
:100E60001001D5F81411D5F82821C5F81C3100233C
:100E7000C5F80031C5F80431C5F80831C5F8183196
:100E8000C5F83031C5F82001C5F82411C5F82C216A
:100E9000FFF750FD4FE7D5F8E031284C5A1C092BDD
:100EA000C5F8E0217FF747AFFFF726FB012384F861
:100EB000E83140E7052385F8E8313CE73B6B7A6B86
:100EC0005B00013218463360C6F80C2202F024FDA4
:100ED00010F014FDD6F80C32C6F81402796BCAE68D
:100EE000022385F8E83126E7F1E91489B04579EB6A
:100EF0000702BFF61DAFC1E9006719E7F3E91E67F6
:100F0000864277EB0104BFF606AFC3E9000102E7B2
:100F1000012804BF022386F8E8319EE7D6F828317D
:100F2000D6F82C113A6A5B1A9342FFF4EAAE042316
:100F3000204685F8E831FFF785FBE2E630580020CF
:100F4000580A0020085A0020205A0020005A002089
:100F500010B500234010002810D10133094C0122A4
:100F60009A4010466363226302F0D6FC10F0C6FC80
:100F7000626BA06319239340E36310BD03F1010387
:100F8000E8DCEAE7580A00202DE9F843154D164C35
:100F9000284600214FF418720AF06AFD0021402211
:100FA00020460AF065FD0720FFF770FA01204FF494
:100FB000167200230D49C5F8E40140F2DC584FF0E9
:100FC0000009142600271920C4E90689C4E902672C
:100FD000C4E904232162FFF7BBFF0020C5F8080223
:100FE000BDE8F88330580020580A00200008AF2FD1
:100FF00008B5012007F0A4FD0248BDE8084007F04D
:101000003FB800BF1D0C000808B5FFF7BDFF00B1D9
:1010100008BD0248BDE8084007F0BEBE250500082F
:1010200008B5FFF7E5FF0248BDE8084007F088BEB5
:1010300025050008014BD3E900017047205A002024
:10104000704700BF0000000002484FF416710422F0
:1010500006F0B8BF391600082DE9F0478846416B05
:10106000002992461F46C0F2B980D0F8BC30A3F1E7
:101070000309B9FA89F94FEA59196B48A0F1BC067E
:10108000011D24220AF078FC06F1B8040023C6F8FA
:10109000E08006F1E00554F8041F184602F088FBD2
:1010A000AC420346F7D16149614D02F03DFDBAF112
:1010B000310F0446C6F8E40016DDC823C5F81C311C
:1010C000384602F029FCBAF57A7F0546404676DBC1
:1010D000584902F029FD0146284602F071FC5649A4
:1010E00002F022FD054623E0544BD5F81C1183FB8A
:1010F0000723FA17A2EBE32303EB830303EB010AB5
:10110000BAF1000FC5F81CA16BDB4D49404602F057
:101110000BFD0546384602F0FFFB0146284602F06B
:101120004FFC454902F000FD0546BAF1000F6BD0B7
:10113000D6F8203103B14546424B9F4208BF454691
:101140002846002102F0D0FD002843D0D6F8E80060
:10115000214602F02BFB20F0004001F0B9FF2EA346
:10116000D3E9002302F09CFA30B3D6F8B800304C33
:10117000002102F0B9FDF8B1B9F1000F1CD0C8236D
:10118000C4F81C31404601F0A3FF00222E4B02F0B0
:1011900021F9044638460D4601F088FF02460B4609
:1011A0002046294601F0ECFF1DA3D3E9002302F0FD
:1011B00011F902F0A7FA05462846BDE8F087234951
:1011C00002F0B2FC294602F0FBFB1B4902F0ACFC2A
:1011D0000546ADE7C6F8E8402046B9E74FF00009FC
:1011E0004BE70023C5F81C311549404602F09CFC32
:1011F0000546384602F090FB0146284602F0E0FB27
:101200000D4902F091FC0546D6F82831012B08BFA4
:1012100000258DE7AFF300801283C0CAA145B63F19
:10122000000000000088B3404C5B0020000020411B
:10123000905A00200000484200409C45AD8BDB687E
:101240000000C84340420F000000794000004843BE
:101250002DE9F04FD04ED6F82021ABB00023032A61
:1012600003930493059300F0A98106F1A403009071
:1012700001931C4609AD54F8040F02F04DFB4FF0EA
:10128000425102F09DFBC54B45F8040B9C42F2D144
:1012900006AD1DA8A3F1B40407F0A8FC284607F08A
:1012A0007BFC04F10C013C2220460AF065FB04F1B2
:1012B0005801502204F148000AF05EFB95E807004F
:1012C00004F13C0383E807001DAB0FCBD6F824C123
:1012D0000CF1010E04F19805BEF1060F85E80F0030
:1012E000C6F824E140F316810623C4F824314FF0F8
:1012F0000009009BDFF8BCA206EB091C09EB4904BE
:101300000CF1480806EB840403F1A00B21AD414623
:10131000A3482A4607F016F821462A46584607F001
:101320008AF82AF00041074620F0004002F0E6FC6F
:1013300009F1010908F110080C3400B1BA46B9F1FD
:10134000060FE4D1009F974C07F1180006F0D3FF79
:10135000D6F83031A3424FEA9012A8BF2346514637
:101360003846FFF779FED6F8EC1002F029FBC6F8F4
:10137000B80019A807F03AFC19A8294607F060FA46
:1013800019A989481DAA06F0DDFF19A8864907F0AA
:1013900046F80DF10C0B4FF0000C0DF1800A05EB37
:1013A0000C021DAB0020002153F8044F52F8047BBF
:1013B0005345C4FB0701F7D1830F0CF10C0C43EA32
:1013C0008103BCF1240F4BF8043BE8D1D6F820315F
:1013D000002B40F0A980059C604202F09DFA4FF07E
:1013E000425102F0EDFA054610F0FCF9824628461B
:1013F00010F02AFA0546204602F08EFA6B4902F0F8
:1014000093FB0746D6F830316948149580FB0320DA
:10141000DB17C3EBE0200024CDF844A01294139412
:1014200002F07AFA05462946384602F07DFB4FF075
:101430007C5102F0C5FA02F089FC400002F06CFA1F
:101440005A4902F0BDFA0146284602F0B9FA02F004
:101450007DFC02F061FA4FF0425102F0B1FA05460C
:1014600010F0C0F9159028461694179410F0ECF976
:1014700011AD189029460DAA09A807F05CF80DA82F
:101480002A4615A907F057F8009BD3F8BC70002F27
:1014900015DDDFF824A1002409AB55F8240043F83A
:1014A00024004FF09D4102F08BFA02F04FFC013412
:1014B000042C4AF8040FEFD1032F00F08580D6F8F2
:1014C000A800354C02F028FA4FF0425102F078FAA9
:1014D0000D90D6F8AC0002F01FFA4FF0425102F026
:1014E0006FFA0E90D6F8B00002F016FA4FF04251A3
:1014F00002F066FA0F90D6F8B40002F00DFA4FF041
:10150000425102F05DFAD6F8203110908BB92BB021
:10151000BDE8F08FCCF10509B9F1050F7FF7E9AE11
:10152000DFF890A021AD0DE700274FF07E5A3D4631
:1015300068E74FF07C51D4F8B80002F041FA054654
:1015400010F050F94FF09D4102F03AFA02F0FEFB24
:101550000023C4F8A8002846C4F8AC30C4F8B03062
:1015600010F072F94FF09D4102F02AFA02F0EEFB02
:10157000009BD3F8C010C4F8B40004F1A80007F031
:10158000A5FAD6F82031044A002BC0D0013BC2F89E
:1015900020312BB0BDE8F08F905A0020445B002032
:1015A000385B002040420F008C5B0020E10237478F
:1015B000AD8BDB6800247449345B00200223C6F83D
:1015C00020312BB0BDE8F08F00F0CCFE00287FF476
:1015D00076AF4FF07C51D6F8B80002F0F1F904462E
:1015E00010F000F90023159020461693179310F081
:1015F0002BF915A918902A4609A806F09CFF284641
:1016000007F037F8019C55F8040B4FF09D4102F0AC
:10161000D7F902F09BFB064B44F8040F9C42F2D131
:10162000009B0448D3F8C01007F050FAA9E700BFA8
:10163000445B0020385B002038B5D0F8B830224A2F
:1016400013F0100308BFC2F82431D0F8203104BFD2
:101650000321C2F82011DC0505D4036BD90527D579
:10166000436FDB0524D5D2F83431174A73B1D0F873
:10167000C030D0F8C44015491B1BA1FB03139B09C4
:10168000C2F83031FFF7E4FD002038BDD0F8B010CB
:1016900044F61F65A94213DCD2F82C412144A9422B
:1016A000C2F82C11F0DDC2F83011C2F82C31E9E794
:1016B00003210023C2F82011C2F82431002038BDD4
:1016C000C2F83011DEE700BF905A0020D34D6210FF
:1016D00010B50D4C4FF49C72002120460AF0C8F959
:1016E00020464FF0804340F8A83F0021C4F8FC306A
:1016F00007F0ECF94FF47A724FF07E53C4F81C21D6
:10170000C4F8EC3010BD00BF905A0020024BC3F863
:10171000EC000020704700BF905A0020024BC3F835
:1017200028010020704700BF905A0020024BC3F8E8
:1017300034010020704700BF905A0020014806F095
:101740009FBC00BF3916000808B5FFF7C1FF054B65
:1017500005480022C3F82821C3F83421BDE8084019
:1017600007F01ABB905A002049100008014807F002
:10177000E7BA00BF4910000802489621082206F087
:1017800021BC00BF891700082DE9F04FADB01BA99F
:1017900004461DA806F08EFB1CA807F0C9F9022814
:1017A0000DD09449D4F8E43091F8B0011B9A10B1EF
:1017B0009B1A40F0F78000202DB0BDE8F08F636BDE
:1017C000032BF8D106F068FB0028F4D0DFF8248260
:1017D000894CD8F8B421D8F8B8311B9D9B1A84FBEA
:1017E0000314DB17C3EB6403AA1A92FBF3F3DCB216
:1017F000042CE0D8542303FB04F908EB090C9CF8F3
:101800005030052B00F09A815A1C8CF8502004EBC4
:101810004404C4EBC404234408EB8304204698F832
:10182000C0111D9EE56303F10A021E9C48F8236067
:10183000446100231F9848F8220001292093219336
:1018400022932393249325932693279328932993D4
:101850002A932B93674AAED1DDE92001CDE90C0133
:10186000DDE92201CDE90A01DDE92401CDE9080124
:10187000DDE92601CDE90E01DDE928019C46D2F81B
:10188000B431D2F8B8E11693CDE906019146DDE90D
:101890002A0100220023CDE91223CDE90401CDF86D
:1018A0005CC0CDF844C0714654465D4699F850E09E
:1018B000BEF1000F00F0AC804A46CDF860904FF0CA
:1018C000000C8946CDE900450BE016999942B8BF56
:1018D000194616910CF1010CF44502F1040200F0D6
:1018E0008D80D36B116881FB0301040C44EA014431
:1018F000091401915169009481FB0301060C46EA29
:1019000001460F14916A81FB03014FEA104A4AEA2B
:10191000014A4FEA214B83FB0301040C44EA0144D2
:1019200002940914DDE90C4503911168641845EB34
:10193000E17511991944CDE90C451191DDE9004596
:10194000DDE90E0124184D4120462946DDE90A450E
:10195000CDE90E015169641845EBE175DDE9060139
:1019600080197941CDE90A45DDE90845CDE906014F
:10197000916A641845EBE175DDE9040110EB0A009A
:1019800041EB0B01CDE90845CDE90401DDE9124544
:10199000DDE90201001969414B45CDE9120194DAF4
:1019A000994697E7D1F8A471D1F8AC21D1F8A801F4
:1019B0001D9E1E9D1F9C83FB000183FB078983FBEB
:1019C00002AB4FEA184E070C4FEA1A424EEA094E94
:1019D00047EA014742EA0B421DA8764414443D44BD
:1019E00003211D961E951F9406F020FA00202DB0AD
:1019F000BDE8F08F980A002067666666179BDDE9F0
:101A000000456344494603F0FF03DDF860901793F7
:101A10005D4B09F1540999457FF448AF169AD8F8FF
:101A2000BC31DDF844C0C1EB020A8E46DDE90C0191
:101A3000CDE92001DDE90A01CDE92201DDE9080156
:101A4000CDE92401DDE90E01CDE92601DDE906013C
:101A5000CDE92801DDE904019A45CDE92A01FFF627
:101A6000AAAE8CFB0C23DDE91245179FDFF818A105
:101A7000CDF808A0110C41EA034100911B14A4FB0E
:101A80000701019307FB0513CDE908010993DDE97F
:101A90000801DDE90023821A61EB0303CDE90C2381
:101AA0006246D317CDE90A2326AE0DF180090697C9
:101AB00099E83000DDE90AAB96E8030004FB0BFE71
:101AC00005FB0AEE0027A4FB0A45754400FB07FE50
:101AD000069F01FB07EEA0FB0701CDE9040171445D
:101AE000DDE908AB0591DDE900018B4508BF8245C2
:101AF000DDE90C2306F1080609F1080914D0270CCA
:101B000047EA05472C1414971594DDE91445DDE9DF
:101B10000401001B61EB0501090441EA10410004C6
:101B200002F03AF9029B1860029B043302932CAB3B
:101B30009E42BDD1012388F8B0313CE608EB090094
:101B40000146403110223C30CDF810C009F014FF9E
:101B5000DDF810C009F1040160464144102209F08B
:101B60000BFF08EB0900014618311022143009F070
:101B700003FF09F1280009F12C01404441441022DF
:101B800009F0FAFE042342E63C0C002070B40B4E30
:101B900006F5D273054693E8070085B08DE8070087
:101BA00096F8B0318DF80C306C460FCC28600020D0
:101BB0006960AA60EB6005B070BC7047980A0020AD
:101BC00070B4034685B0006859689A68DB68074EB0
:101BD0006C460FC406F5D2739DF80C4086F8B041F0
:101BE00083E80700002005B070BC7047980A002009
:101BF00010B50B4C002120464FF4E27209F038FF7B
:101C0000084BC4F8B43101234FF4AA014FF4A022C9
:101C100084F8C031C4F8B811C4F8BC21002010BD4C
:101C2000980A00200000D8FF024BC3F8B80100203A
:101C3000704700BF980A0020024BC3F8B40100208F
:101C4000704700BF980A0020024BC3F8BC01002077
:101C5000704700BF980A002058B1074BD3F8A42161
:101C60000260D3F8A8214260D3F8AC318360002031
:101C700070471620704700BF980A00202420704744
:101C8000034608B924207047024A002082F8C03178
:101C9000704700BF980A002000207047014806F0F6
:101CA000EFB900BF8917000808B5FFF7A1FF0A4880
:101CB0000A4910224FF49A7307F0A4F808B10120E2
:101CC00008BD074807F068F80028F8D1054B012245
:101CD00083F8B12108BD00BFC11B00088D1B00089F
:101CE00079170008980A002010B5084C94F8B10143
:101CF00000B910BD064806F0C3F9064807F020F801
:101D000010B984F8B10110BD012010BD980A00205F
:101D1000891700087917000802484FF496710422C9
:101D200006F050B92D230008002805DD034B0122E1
:101D3000C3F88000C3F88420002070475C0C0020AA
:101D400070B50C4C0C4E0D4D00212046B82209F008
:101D50008FFE0B4A0B480C4BE2604FF080414FF472
:101D6000FA626060A66025606166E267C4F89C3034
:101D7000002070BD5C0C00200000B4C20000704266
:101D80000000B4420000F0417B142E3E014806F0F2
:101D900077B900BF2D23000808B5FFF7D1FF00B1C8
:101DA00008BD064A0346C2F88C300123C2F88830C9
:101DB0000348BDE8084006F0EFBF00BF5C0C002000
:101DC000191D000810B5044C204606F059F92046AC
:101DD000BDE8104006F054B92D230008024B002046
:101DE000C3F88C00704700BF5C0C0020024B01223E
:101DF000C3F88C20002070475C0C002038B558B127
:101E0000012819D0224B00220121C3F89810C3F8F1
:101E10008C20C3F8902038BD1D4B00240122C3F84C
:101E2000A010C3F8A410C3F89400C3F89800C3F836
:101E3000A840C3F8902038BD154D08460C46D5F88B
:101E4000A01001F0B3FCD5F89C1020F0004001F088
:101E500055FFB0B1D5F89430D5F8A41020465C1CDD
:101E6000C5F8944001F0A4FC312CC5F8A4000DDDA8
:101E700002230849C5F8903001F056FEC5F8A800C5
:101E800038BDC5F89000C5F8940038BD38BD00BF16
:101E90005C0C002000004842F0B58FB006460D46AD
:101EA00005A9144606F0CCFC01AA2846314606F0E6
:101EB00049FA3046294606F0B2FA05AFA4F1040CFF
:101EC00004F108020DF1100E01AB3C460020002188
:101ED00053F8045F54F8046B7345C5FB0601F7D152
:101EE000830F43EA81034CF8043F944507F10C0744
:101EF000EAD10FB0F0BD00BFF8B50446006801F0AC
:101F00000BFD0746606801F007FD0646A06801F07A
:101F100003FD39460546384601F052FD3146044678
:101F2000304601F04DFD0146204601F041FC2946B6
:101F30000446284601F044FD0146204601F038FCE5
:101F40000FF0DCFC4FF05E5101F03AFDF8BD00BF30
:101F500070B51C4C05460E462068294601F0CEFEA1
:101F600020B92846616801F0C9FE90B1636F154A37
:101F7000A3B1012200236267A367E26F11499A426D
:101F800006DC4B6F012B04BF0023CB650023636786
:101F900070BD2369012B07D0A36FEEE702F1180093
:101FA000916D06F093FDE4E7E068314601F0A6FE8E
:101FB0000028DBD13046A16801F0A0FE0028EBD05C
:101FC000D4E700BF5C0C002038B505460C4606F08F
:101FD000A9FD20B928460C4901F0AEFE78B10B4BA3
:101FE00000221A615A615969084A2144B1F5FA7F01
:101FF000596103DD012100231161536138BD034B99
:102000001A69002AEFD038BD00401C465C0C002045
:102010002DE9F04FB24D8DB0D5F8886000240694BC
:102020000794089426B9002318460DB0BDE8F08F38
:102030001C4617460091804605F074FE002840F0CB
:102040002C81D5F88030A64E002B12DD0123C6F876
:10205000843005F067FE002840F0B380D6F8803069
:10206000C8EB0303C6F88030002BDCBF0023C5F8A3
:10207000843006F02FFE0028D5D04FF0000A043C33
:102080003E1F07F1080B56F8040F01F045FC4FF016
:102090005E5101F095FC814654F8040F01F03CFCC0
:1020A0000146484601F08CFC4FF05E5101F088FC7F
:1020B0000146504601F07CFB5E458246E3D138463E
:1020C000FFF71AFF06463146504601F02DFD4FF04E
:1020D0007E51044601F030FE00286AD04FF07E5455
:1020E00020460FF0E9FBD5F88C30DFF8F4A1074665
:1020F0006BB13046DAF8001001F000FE38B130461E
:10210000DAF8041001F018FE002840F0CA8009AC8B
:10211000DFF8CCA1204606F033FD20460AF1AC01E1
:102120000C2209F0F5FB002855D1DAF89830012B84
:1021300051D0EA6D6A4B62B90122DA6503F11804E5
:1021400003F1580A20466749103406F0D5FC54457F
:10215000F8D1DDF80090624C03AA484604F164010E
:10216000FFF79AFE04F16401484606F058F906A804
:1021700006F0C1F801F0CCFB4FF0725101F020FCE9
:102180004146FFF721FF30463946FFF7E1FEAB6FCE
:10219000EA6F934201DA4344A3676B6F504C002B04
:1021A0007FF442AF206E4044B0F57A7F7FDC20663A
:1021B0003AE720464C4901F0A1FD002890D04A4C56
:1021C0008EE706A806F097F8B0F5C84FD6F880302D
:1021D000BFF446AF48E794E80700DFF804A1099B85
:1021E0000AF1AC0E8EE80700A3B90A9B93B90B9BCA
:1021F00083B9DAF898203D483D49CAF80000012A21
:10220000CAF804107CD03B4A3B4BCAF80820CAF8F5
:102210000C308EE72046FFF76FFE0021044601F0E8
:1022200063FD002885D12046344901F0BFFA0146FC
:1022300001F0C6FB0FF062FB30496860204601F0F8
:10224000B7FA014601F0BCFB0FF058FB28600B9871
:1022500001F062FB4FF05E5101F0B2FB214601F04C
:1022600063FC4FF07E51044601F066FD78B34FF0F9
:102270007E5420460FF020FBD5F89C1001F096FA12
:10228000A86020460FF018FBD5F89C1001F090FADA
:102290000023E860C5F88C304BE706A805F086FF00
:1022A000CFE6DAF890003946FFF7A8FD2FE704F1F2
:1022B0002801302204F11800236609F05DFB04F1C7
:1022C000480004F1580106F017FC636FACE62046A5
:1022D000054901F013FD0028CBD0034CC9E700BF2E
:1022E0005C0C0020B40C0020000080BF0000704295
:1022F0000000F0410000B4C20000B44200002041E0
:10230000DAF8A840DAF89CB001935946204601F06B
:102310004DFA5946CAF80800204601F049FA019BD7
:10232000CAF89830CAF80C0003E700BF70B504463D
:1023300088B001A806F030FCD4F8C030D4F8C450FE
:1023400004A85D1B06F052FC04A9064604F1A00295
:1023500001AB2846FFF75CFE05F062FD304608B091
:1023600070BD00BF014B586F704700BF5C0C002070
:102370002DE9F843044600680D4601F0CDFA064603
:10238000606801F0C9FA8146A06801F0C5FA80468C
:10239000E06801F0C1FA31460746304601F010FB13
:1023A00049460646484601F00BFB0146304601F01F
:1023B000FFF941460646404601F002FB0146304621
:1023C00001F0F6F939460646384601F0F9FA0146B9
:1023D000304601F0EDF90021064601F099FC002895
:1023E00032D130460FF08AFA01464FF07E5001F0AC
:1023F0009BFB4FF09D4101F0E3FA0646206801F097
:102400008BFA314601F0DCFA01F0A0FC286060682C
:1024100001F082FA314601F0D3FA01F097FC6860CE
:10242000A06801F079FA314601F0CAFA01F08EFC99
:10243000A860E06801F070FA314601F0C1FA01F0DD
:1024400085FCE860BDE8F88300234FF0804285E812
:102450000C00AB60EB60BDE8F88300BF08B5084B2B
:1024600008491868082209F053FA08B1322008BD5B
:102470000548C8211322BDE8084005F0A3BD00BFF0
:1024800018000020D82D0108452D0008F0B58669F8
:1024900086EAE673A3EBE673B3F5803F89B05CDAB6
:1024A000C369002BB8BF5B42B3F5803F5DDBB3F57A
:1024B000C80F71DD3C4D0323AB63836A6A6B3A4FEF
:1024C0009A4204466AD018467B6301F025FA3749E0
:1024D00001F02AFB4FF09C4101F072FA00F0F8FD88
:1024E0002FA3D3E9002300F04BFE0022304B00F075
:1024F00047FE00222F4B00F06DFF01F0DBF8014694
:10250000386300233046009305F00FFF296B0190DC
:10251000E06905F00AFF296B0290206A05F005FFCB
:1025200004AA03906946204805F00CFF049D059C11
:10253000069A079B1C489B0104A9AE01A5019401C2
:102540000246079304960595069405F054FF164835
:102550000146FFF70DFF09B0F0BDB3F5C80FA9DCC8
:10256000C369002BB8BF5B42A1E7036A83EAE37249
:10257000A2EBE372B2F5803F09DB002BB8BF5B42F0
:10258000B3F5C80F96DC084D0223AB6395E7064B05
:1025900000229A6309B0F0BD036AEEE7396BB0E739
:1025A000182D4454FB210940140D002000247449C7
:1025B0000000704000806640036B5B0600D565E755
:1025C000704700BF30B50A4C85B0054669462046C5
:1025D00005F025FF2846694604F1200205F0B2FE09
:1025E00028686968AA68EB6810340FC405B030BD6C
:1025F000140D00202DE9F04F436F03F05003402BE2
:102600009DB0044600F02082D0F82011874E01F0E2
:102610005003402B00F0D382CD0500F11581236BD0
:10262000590600F1E881814D05F1100205F1200005
:10263000294605F087FE636F5A0656D5D4F8202147
:10264000236B1343DB0554D505F1100004F15C0145
:1026500010AA05F04EFF226EE06D616E82FB022330
:10266000C0FB0023C1FB01236FF040484FF002097B
:10267000904579EB0303C0F2AF82B36B042B00F0FB
:10268000BE829A1E012A40F2BA81012B00F01E83FD
:102690000124674BA40003FB04F411980025214694
:1026A0008002149505F041FE109B1590584221467A
:1026B000800205F03AFE18AA16905E49179514A8F4
:1026C00005F040FE5B4818A9024605F094FE594803
:1026D0000146FFF74DFE6946544805F0A0FE5548F7
:1026E000694600F1100205F02DFE00201DB0BDE886
:1026F000F08FE06DD4F86C8001F00EF90746206E83
:1027000001F00AF98246606E01F006F93946814609
:10271000384601F055F951460746504601F050F948
:102720000146384601F044F849460746484601F05C
:1027300047F90146384601F03BF80FF0DFF84FF05B
:102740008D41074620F0004001F0F6FA0028C2D083
:10275000286901F0E1F84FF0425101F031F9189089
:10276000686901F0D9F84FF0425101F029F9199048
:10277000A86901F0D1F84FF0425101F021F91A9007
:10278000E86901F0C9F84FF0425101F019F900234E
:102790001B90E06D149301F0BFF8394601F0C4F9C5
:1027A0001590206E01F0B8F8394601F0BDF9169089
:1027B000606E01F0B1F8394601F0B6F918AD04AA1F
:1027C000179014A9284605F0B6FE28460CA906F075
:1027D00028F808AA04A80CA905F0ADFE0A9F099CD8
:1027E0003946384601F0ECF821468146204601F092
:1027F000E7F80146484600F0DBFF0F49814601F04B
:102800007DFA002840F0038248460C4901F076FA30
:10281000002840F06F824846094901F06FFA00280D
:1028200040F04882DFF81CA0F3E100BF140D002047
:10283000A69BC400240D002017B751390AD7233CAA
:10284000CDCC4C3ECDCCCC3E48067FF5ECAED4F89A
:1028500010213768D4F82C51714B724803FB05F3F3
:10286000D21B9A42CCBF0323022311F4007183636D
:1028700040F0C78110AF6B4D384605F01BFB384662
:1028800005F13C010C2209F043F828B9AB6DD4F8EE
:1028900028219A4200F0418218AD2B463A46616ADF
:1028A000208806F04CF8189801F036F88046199800
:1028B00001F032F882461A9801F02EF8414681461E
:1028C000404601F07DF851468046504601F078F8C8
:1028D0000146404600F06CFF49468046484601F0FC
:1028E0006FF80146404600F063FF0FF007F84E49CD
:1028F000D4F82891804601F063F84C4901F014F9AE
:102900004FF05E5101F05CF88246484601F004F851
:102910000146504601F054F8454901F005F94FF0E1
:102920007C5101F04DF882460EF05CFF8346504624
:102930000EF08AFF4FF080418246404601F0DEF9FA
:10294000002840F0AF814FF09D41584601F038F823
:1029500001F0FCF90AF1004A4FF09D41B064504685
:1029600001F02EF88246189800F0D6FF0146504636
:1029700001F026F8414601F0D7F801F0E7F9F064DC
:10298000199800F0C9FF0146504601F019F8414678
:1029900001F0CAF801F0DAF930651A9800F0BCFFCE
:1029A0000146504601F00CF8414601F0BDF801F037
:1029B000CDF9706597E807001E4BC6F8589083E87C
:1029C000070004F5887738462A461B4905F0BAFC0B
:1029D00014AA2946194805F0B5FC3846174905F0F0
:1029E0001EFD14A90F482A4605F0ACFC28460D49E7
:1029F000FFF7BEFC17E62046FFF748FD13E6E16E41
:102A00000F4CCA1784FB0114C2EBE424012CB8BF9D
:102A10000124032B7FF43DAE0A4B03FB04F43CE698
:102A200071981C00140D0020DB0F49400000344356
:102A300000247449500D00205C0D0020700D002012
:102A4000AD8BDB68A69BC400C06D00F065FF05463A
:102A5000206E00F061FF0746606E00F05DFF2946C2
:102A60000646284600F0ACFF39460546384600F0D9
:102A7000A7FF0146284600F09BFE3146054630463A
:102A800000F09EFF0146284600F092FE0EF036FF51
:102A90004FF07E51054601F03BF9002840F00D81D2
:102AA000606E00F039FF294601F03EF80146064607
:102AB0004FF07E5000F07AFE0021054601F03CF90F
:102AC000002800F0288128464FF07C5100F078FF64
:102AD0000EF014FF4FF07E510546304600F068FEC0
:102AE0000021064601F028F9002800F01281304646
:102AF0004FF07C5100F064FF0EF000FF8146E06D66
:102B000000F00AFF0646206E00F006FF3146074639
:102B1000304600F055FF39460646384600F050FF73
:102B20000146304600F044FE0EF0E8FE4FF07E51C4
:102B3000804601F0EDF80746002840F0BE804FF0D7
:102B40009D41484600F03CFF01F000F9744E3061B1
:102B5000206E00F0E1FE414600F0E6FF0146284607
:102B600000F02EFF4FF09D4100F02AFF01F0EEF83B
:102B70007061E06D00F0D0FE414600F0D5FF05F138
:102B800000450146284600F01BFF4FF09D4100F034
:102B900017FF01F0DBF8F761B061D4F82031DB05F5
:102BA00000F1A28069465E4805F039FC5D4869463F
:102BB00000F1100205F0C6FBD4F820112CE500F559
:102BC000887006F15C0105F02AFC636FDF0500F1F7
:102BD0009480D4F820111FE50CA806F087F80D9A10
:102BE0000C980E9982FB0223C0FB0023C1FB01233A
:102BF000904579EB0303BFF640AD0423AB6300249B
:102C00004BE504F588704649FFF7B2FB0BE5DFF8AA
:102C10002CA1404600F080FE434900F085FF51465C
:102C200000F0CEFE4FF00009014680463846CDF850
:102C3000409000F0C5FE04F100411190404600F0C4
:102C4000BFFE2946129008AA10A8CDF84C9005F0B6
:102C500072FC08A80246294605F0F2FC08A805F017
:102C60009BFD4FF09D41089800F0AAFE01F06EF820
:102C70004FF09D413061099800F0A2FE01F066F826
:102C80004FF09D4170610A9800F09AFE01F05EF8E5
:102C90004FF09D41B0610B9800F092FE01F056F8A4
:102CA000F06118E500234FF08042B264F3643365AD
:102CB00073657FE64FF07A5AABE7194E00234FF069
:102CC000804232617361B361F36166E7E26E174C73
:102CD000D31784FB0224C3EBE424002CC9BF144B9C
:102CE000144CE4005C43D8E404F58870124905F004
:102CF00096FB57E7DFF848A08BE76946304605F0BA
:102D00008EFB694606F1100006F1200205F01AFB61
:102D10005FE70020F0E60020DAE618AD51E600BFDC
:102D2000140D0020240D00200014CD47AD8BDB686E
:102D3000A69BC40030DD2406700D0020A69BC43B7A
:102D40008FC2753D38B5036BDC0502D4436FD905DE
:102D50000FD5D0F8203103F44073B3F5407F04461B
:102D600011D0FFF747FCA16B0C4805F099FE00203D
:102D700038BDD0F82031DA05F9D503F44073B3F546
:102D8000407F0446EDD1054DD0F81001D4F8141160
:102D9000D4F81821D4F81C310FC5E4E7240D002025
:102DA000014805F06DB900BF452D000810B5074C6E
:102DB000002120466C2208F05BFE4FF08043236127
:102DC00023602362E363E365002010BD140D00203F
:102DD00008B5FFF7EBFF00B108BD0248BDE80840A9
:102DE00005F0DABF5D24000808B5044805F048F98D
:102DF0000348BDE8084005F0A3BF00BF452D00080B
:102E00005D240008AFF3008081F0004102E000BFC4
:102E100083F0004330B54FEA41044FEA430594EA9A
:102E2000050F08BF90EA020F1FBF54EA000C55EAD5
:102E3000020C7FEA645C7FEA655C00F0E2804FEAA6
:102E40005454D4EB5555B8BF6D420CDD2C4480EA88
:102E5000020281EA030382EA000083EA010180EAB8
:102E6000020281EA0303362D88BF30BD11F0004F06
:102E70004FEA01314FF4801C4CEA113102D040423C
:102E800061EB410113F0004F4FEA03334CEA133377
:102E900002D0524263EB430394EA050F00F0A7808F
:102EA000A4F10104D5F1200E0DDB02FA0EFC22FA8A
:102EB00005F2801841F1000103FA0EF2801843FA7E
:102EC00005F359410EE0A5F120050EF1200E012A6F
:102ED00003FA0EFC28BF4CF0020C43FA05F3C018AD
:102EE00051EBE37101F0004507D54FF0000EDCF126
:102EF000000C7EEB00006EEB0101B1F5801F1BD3CF
:102F0000B1F5001F0CD349085FEA30004FEA3C0CD2
:102F100004F101044FEA445212F5800F80F09A80C8
:102F2000BCF1004F08BF5FEA500C50F1000041EBCC
:102F3000045141EA050130BD5FEA4C0C404141EBD0
:102F40000101013C28BFB1F5801FE9D291F0000FCB
:102F500004BF01460020B1FA81F308BF2033A3F17A
:102F60000B03B3F120020CDA0C3208DD02F1140C71
:102F7000C2F10C0201FA0CF021FA02F10CE002F1AC
:102F80001402D8BFC2F1200C01FA02F120FA0CFCA5
:102F9000DCBF41EA0C019040E41AA2BF01EB0451EE
:102FA000294330BD6FEA04041F3C1CDA0C340EDCEC
:102FB00004F11404C4F1200220FA04F001FA02F32F
:102FC00040EA030021FA04F345EA030130BDC4F1ED
:102FD0000C04C4F1200220FA02F001FA04F340EAE2
:102FE0000300294630BD21FA04F0294630BD94F093
:102FF000000F83F4801306BF81F480110134013D7A
:103000004EE77FEA645C18BF7FEA655C29D094EAEA
:10301000050F08BF90EA020F05D054EA000C04BF68
:103020001946104630BD91EA030F1EBF0021002053
:1030300030BD5FEA545C05D14000494128BF41F0F2
:10304000004130BD14F580043CBF01F5801130BD56
:1030500001F0004545F0FE4141F470014FF00000E1
:1030600030BD7FEA645C1ABF194610467FEA655C92
:103070001CBF0B46024650EA013406BF52EA033534
:1030800091EA030F41F4002130BD00BF90F0000F22
:1030900004BF0021704730B54FF4806404F132045E
:1030A0004FF000054FF0000150E700BF90F0000F17
:1030B00004BF0021704730B54FF4806404F132043E
:1030C00010F0004548BF40424FF000013EE700BF0E
:1030D00042004FEAE2014FEA31014FEA02701FBF9E
:1030E00012F07F4393F07F4F81F06051704732F0D0
:1030F0007F4208BF704793F07F4F04BF41F4002127
:10310000704730B54FF4607401F0004521F0004184
:103110001CE700BF50EA010208BF704730B54FF00E
:1031200000050AE050EA010208BF704730B511F00F
:10313000004502D5404261EB41014FF4806404F147
:1031400032045FEA915C3FF4D8AE4FF003025FEACD
:10315000DC0C18BF03325FEADC0C18BF033202EB51
:10316000DC02C2F1200300FA03FC20FA02F001FAAB
:1031700003FE40EA0E0021FA02F11444BDE600BF4E
:1031800070B54FF0FF0C4CF4E06C1CEA11541DBFFD
:103190001CEA135594EA0C0F95EA0C0F00F0DEF8C8
:1031A0002C4481EA030621EA4C5123EA4C5350EAAD
:1031B000013518BF52EA033541F4801143F48013FE
:1031C00038D0A0FB02CE4FF00005E1FB02E506F08F
:1031D0000042E0FB03E54FF00006E1FB03569CF0E4
:1031E000000F18BF4EF0010EA4F1FF04B6F5007FEA
:1031F00064F5407404D25FEA4E0E6D4146EB06065C
:1032000042EAC62141EA55514FEAC52040EA5E50E4
:103210004FEACE2EB4F1FD0C88BFBCF5E06F1ED88E
:10322000BEF1004F08BF5FEA500E50F1000041EBC5
:10323000045170BD06F0004646EA010140EA020072
:1032400081EA0301B4EB5C04C2BFD4EB0C0541EA94
:10325000045170BD41F480114FF0000E013C00F3A9
:10326000AB8014F1360FDEBF002001F0004170BDCD
:10327000C4F10004203C35DA0C341BDC04F11404E6
:10328000C4F1200500FA05F320FA04F001FA05F272
:1032900040EA020001F0004221F0004110EBD3703F
:1032A00021FA04F642EB06015EEA430E08BF20EA6B
:1032B000D37070BDC4F10C04C4F1200500FA04F30E
:1032C00020FA05F001FA04F240EA020001F00041A0
:1032D00010EBD37041F100015EEA430E08BF20EA13
:1032E000D37070BDC4F1200500FA05F24EEA020E5B
:1032F00020FA04F301FA05F243EA020321FA04F08A
:1033000001F0004121FA04F220EA020000EBD37040
:103310005EEA430E08BF20EAD37070BD94F0000F40
:103320000FD101F00046400041EB010111F4801F74
:1033300008BF013CF7D041EA060195F0000F18BF25
:10334000704703F00046520043EB030313F4801F61
:1033500008BF013DF7D043EA0603704794EA0C0F1B
:103360000CEA135518BF95EA0C0F0CD050EA410631
:1033700018BF52EA4306D1D181EA030101F00041AE
:103380004FF0000070BD50EA410606BF10461946D6
:1033900052EA430619D094EA0C0F02D150EA0136E2
:1033A00013D195EA0C0F05D152EA03361CBF104623
:1033B00019460AD181EA030101F0004141F0FE41C2
:1033C00041F470014FF0000070BD41F0FE4141F446
:1033D000780170BD70B54FF0FF0C4CF4E06C1CEA46
:1033E00011541DBF1CEA135594EA0C0F95EA0C0FFB
:1033F00000F0A7F8A4EB050481EA030E52EA0335B6
:103400004FEA013100F088804FEA03334FF08055D6
:1034100045EA131343EA12634FEA022245EA111503
:1034200045EA10654FEA00260EF000419D4208BFB4
:10343000964244F1FD0404F5407402D25B084FEA61
:103440003202B61A65EB03055B084FEA32024FF40D
:1034500080104FF4002CB6EB020E75EB030E22BF6A
:10346000B61A754640EA0C005B084FEA3202B6EB2A
:10347000020E75EB030E22BFB61A754640EA5C00D9
:103480005B084FEA3202B6EB020E75EB030E22BF69
:10349000B61A754640EA9C005B084FEA3202B6EB6A
:1034A000020E75EB030E22BFB61A754640EADC0029
:1034B00055EA060E18D04FEA051545EA16754FEA8B
:1034C00006164FEAC30343EA52734FEAC2025FEAA9
:1034D0001C1CC0D111F4801F0BD141EA00014FF038
:1034E00000004FF0004CB6E711F4801F04BF014309
:1034F0000020B4F1FD0C88BFBCF5E06F3FF6AFAE25
:10350000B5EB030C04BFB6EB020C5FEA500C50F1B4
:10351000000041EB045170BD0EF0004E4EEA113137
:1035200014EB5C04C2BFD4EB0C0541EA045170BD3E
:1035300041F480114FF0000E013C90E645EA060E82
:103540008DE60CEA135594EA0C0F08BF95EA0C0FB0
:103550003FF43BAF94EA0C0F0AD150EA01347FF4F8
:1035600034AF95EA0C0F7FF425AF104619462CE7CF
:1035700095EA0C0F06D152EA03353FF4FDAE104632
:10358000194622E750EA410618BF52EA43067FF483
:10359000C5AE50EA41047FF40DAF52EA43057FF413
:1035A000EBAE12E74FF0FF3C06E000BF4FF0010C1E
:1035B00002E000BF4FF0010C4DF804CD4FEA410C82
:1035C0007FEA6C5C4FEA430C18BF7FEA6C5C1BD04F
:1035D00001B050EA410C0CBF52EA430C91EA030FD0
:1035E00002BF90EA020F0020704710F1000F91EA2D
:1035F000030F58BF994208BF90422CBFD8176FEAFB
:10360000E37040F0010070474FEA410C7FEA6C5CC8
:1036100002D150EA013C07D14FEA430C7FEA6C5CCF
:10362000D6D152EA033CD3D05DF8040B704700BFFB
:103630008446104662468C461946634600E000BF49
:1036400001B5FFF7B7FF002848BF10F1000F01BD1B
:103650004DF808EDFFF7F4FF0CBF012000205DF8E6
:1036600008FB00BF4DF808EDFFF7EAFF34BF01206B
:1036700000205DF808FB00BF4DF808EDFFF7E0FF04
:1036800094BF012000205DF808FB00BF4DF808ED55
:10369000FFF7CEFF94BF012000205DF808FB00BFBC
:1036A0004DF808EDFFF7C4FF34BF012000205DF89E
:1036B00008FB00BF4FEA410212F5001215D211D5E6
:1036C0006FF47873B3EB625212D94FEAC12343F01F
:1036D000004343EA505311F0004F23FA02F018BFA1
:1036E000404270474FF00000704750EA013005D16A
:1036F00011F0004008BF6FF0004070474FF000002D
:10370000704700BF4FEA4102B2F1E04324BFB3F576
:10371000001CDCF1FE5C0DD901F0004C4FEAC00248
:103720004CEA5070B2F1004F40EB830008BF20F02C
:103730000100704711F0804F21D113F13872BCBFE6
:1037400001F00040704741F480114FEA5252C2F13B
:103750001802C2F1200C10FA0CF320FA02F018BF84
:1037600040F001004FEAC1234FEAD32303FA0CFCD7
:1037700040EA0C0023FA02F34FEA4303CCE77FEA66
:10378000625307D150EA01331EBF4FF0FE4040F4B0
:103790004000704701F0004040F0FE4040F400005F
:1037A000704700BF80F0004002E000BF81F00041A0
:1037B00042001FBF5FEA410392EA030F7FEA226CD7
:1037C0007FEA236C6AD04FEA1262D2EB1363C1BF67
:1037D000D218414048404140B8BF5B42192B88BFD6
:1037E000704710F0004F40F4000020F07F4018BFF9
:1037F000404211F0004F41F4000121F07F4118BF19
:10380000494292EA030F3FD0A2F1010241FA03FCC0
:1038100010EB0C00C3F1200301FA03F100F00043A8
:1038200002D5494260EB4000B0F5000F13D3B0F170
:10383000807F06D340084FEA310102F10102FE2ADF
:1038400051D2B1F1004F40EBC25008BF20F001004F
:1038500040EA03007047490040EB0000013A28BFEE
:10386000B0F5000FEDD2B0FA80FCACF1080CB2EB71
:103870000C0200FA0CF0AABF00EBC25052421843EF
:10388000BCBFD0401843704792F0000F81F4000194
:1038900006BF80F400000132013BB5E74FEA410367
:1038A0007FEA226C18BF7FEA236C21D092EA030FD3
:1038B00004D092F0000F08BF0846704790EA010F4D
:1038C0001CBF0020704712F07F4F04D1400028BF7A
:1038D00040F00040704712F100723CBF00F500005C
:1038E000704700F0004343F0FE4040F40000704792
:1038F0007FEA226216BF08467FEA2363014642023E
:1039000006BF5FEA412390EA010F40F48000704750
:103910004FF0000304E000BF10F0004348BF4042F6
:103920005FEA000C08BF704743F0964301464FF032
:1039300000001CE050EA010208BF70474FF000038E
:103940000AE000BF50EA010208BF704711F00043CF
:1039500002D5404261EB41015FEA010C02BF84469F
:103960000146002043F0B64308BFA3F18053A3F5FE
:103970000003BCFA8CF2083AA3EBC25310DB01FA45
:1039800002FC634400FA02FCC2F12002BCF1004FC9
:1039900020FA02F243EB020008BF20F0010070475A
:1039A00002F1200201FA02FCC2F1200250EA4C00AE
:1039B00021FA02F243EB020008BF20EADC707047F4
:1039C0004FF0FF0C1CEAD0521EBF1CEAD15392EA02
:1039D0000C0F93EA0C0F6FD01A4480EA010C4002DE
:1039E00018BF5FEA41211ED04FF0006343EA501038
:1039F00043EA5111A0FB01310CF00040B1F5000F7A
:103A00003EBF490041EAD3715B0040EA010062F128
:103A10007F02FD2A1DD8B3F1004F40EBC25008BF12
:103A200020F00100704790F0000F0CF0004C08BF30
:103A300049024CEA502040EA51207F3AC2BFD2F1FD
:103A4000FF0340EAC250704740F400004FF000030B
:103A5000013A5DDC12F1190FDCBF00F00040704745
:103A6000C2F10002410021FA02F1C2F1200200FA83
:103A700002FC5FEA310040F1000053EA4C0308BF4A
:103A800020EADC70704792F0000F00F0004C02BF9B
:103A9000400010F4000F013AF9D040EA0C0093F016
:103AA000000F01F0004C02BF490011F4000F013B70
:103AB000F9D041EA0C018FE70CEAD15392EA0C0FDE
:103AC00018BF93EA0C0F0AD030F0004C18BF31F049
:103AD000004CD8D180EA010000F00040704790F01F
:103AE000000F17BF90F0004F084691F0000F91F0C3
:103AF000004F14D092EA0C0F01D142020FD193EA89
:103B00000C0F03D14B0218BF084608D180EA010010
:103B100000F0004040F0FE4040F40000704740F0EC
:103B2000FE4040F4400070474FF0FF0C1CEAD052BA
:103B30001EBF1CEAD15392EA0C0F93EA0C0F69D016
:103B4000A2EB030280EA010C49024FEA402037D081
:103B50004FF0805343EA111143EA10130CF0004078
:103B60008B4238BF5B0042F17D024FF4000C8B4268
:103B700024BF5B1A40EA0C00B3EB510F24BFA3EB48
:103B8000510340EA5C00B3EB910F24BFA3EB910318
:103B900040EA9C00B3EBD10F24BFA3EBD10340EA72
:103BA000DC001B0118BF5FEA1C1CE0D1FD2A3FF6B8
:103BB00050AF8B4240EBC25008BF20F0010070476D
:103BC0000CF0004C4CEA50207F32C2BFD2F1FF0310
:103BD00040EAC250704740F400004FF00003013A41
:103BE00037E792F0000F00F0004C02BF400010F4E5
:103BF000000F013AF9D040EA0C0093F0000F01F0F9
:103C0000004C02BF490011F4000F013BF9D041EA1A
:103C10000C0195E70CEAD15392EA0C0F08D142024D
:103C20007FF47DAF93EA0C0F7FF470AF084676E720
:103C300093EA0C0F04D14B023FF44CAF08466EE7F9
:103C400030F0004C18BF31F0004CCAD130F00042C7
:103C50007FF45CAF31F000437FF43CAF5FE700BF1F
:103C60004FF0FF3C06E000BF4FF0010C02E000BF48
:103C70004FF0010C4DF804CD4FEA40024FEA4103EA
:103C80007FEA226C18BF7FEA236C11D001B052EAA0
:103C9000530C18BF90EA010F58BFB2EB030088BF66
:103CA000C81738BF6FEAE17018BF40F001007047D5
:103CB0007FEA226C02D15FEA402C05D17FEA236CB7
:103CC000E4D15FEA412CE1D05DF8040B704700BFFE
:103CD000844608466146FFE70FB5FFF7C9FF002895
:103CE00048BF10F1000F0FBD4DF808EDFFF7F4FFCE
:103CF0000CBF012000205DF808FB00BF4DF808ED67
:103D0000FFF7EAFF34BF012000205DF808FB00BF89
:103D10004DF808EDFFF7E0FF94BF012000205DF8AB
:103D200008FB00BF4DF808EDFFF7D2FF94BF01205C
:103D300000205DF808FB00BF4DF808EDFFF7C8FF55
:103D400034BF012000205DF808FB00BF4FEA4002AD
:103D5000B2F1FE4F0FD34FF09E03B3EB12620DD9B9
:103D60004FEA002343F0004310F0004F23FA02F023
:103D700018BF404270474FF00000704712F1610FCA
:103D800001D1420205D110F0004008BF6FF00040A1
:103D900070474FF0000070477BB972B90029BEBF71
:103DA00000204FF0004106E008BF00281CBF6FF064
:103DB00000414FF0FF3000F0F3B9ADF1080C6DE9B0
:103DC00004CE002909DB002B1ADB00F081F8DDF8B6
:103DD00004E0DDE9022304B07047404261EB410199
:103DE000002B1BDB00F074F8DDF804E0DDE90223B2
:103DF00004B0404261EB4101524263EB4303704720
:103E0000524263EB430300F063F8DDF804E0DDE9C0
:103E1000022304B0404261EB41017047524263EB20
:103E2000430300F055F8DDF804E0DDE9022304B0B7
:103E3000524263EB4303704753B94AB9002908BFA4
:103E400000281CBF4FF0FF314FF0FF3000F0A8B941
:103E5000ADF1080C6DE904CE00F03AF8DDF804E0AD
:103E6000DDE9022304B0704710B500210446FFF7D6
:103E700045FF20B92046BDE8104000F009B804F124
:103E8000004000F005F8404261EB410110BD00BF69
:103E9000D0B5FFF71DF90C4B002206460F46FFF781
:103EA0006FF900F07FF90446FFF7F0F8074B0022A6
:103EB000FFF766F902460B4630463946FEF7A8FF83
:103EC00000F070F92146D0BD0000F03D0000F04147
:103ED0002DE9F047089E0D4604468846002B4DD13B
:103EE0008A42944668D9B2FA82F252B101FA02F3D8
:103EF000C2F1200120FA01F10CFA02FC41EA0308A8
:103F000094404FEA1C45210CB8FBF5FE1FFA8CF7D4
:103F100005FB1E8341EA03430EFB07F199420BD9CF
:103F20001CEB03030EF1FF3080F01E81994240F23A
:103F30001B81AEF1020E63445B1AA4B2B3FBF5F031
:103F400005FB103344EA034400FB07F7A7420AD9F4
:103F50001CEB040400F1FF3380F00881A74240F21B
:103F6000058164440238E41B40EA0E4000211EB182
:103F7000D4400023C6E90043BDE8F0878B4208D94E
:103F8000002E00F0EE800021C6E900050846BDE8DD
:103F9000F087B3FA83F100294AD1AB4202D38242BF
:103FA00000F2F980841A65EB030301209846002E85
:103FB000E2D0C6E90048DFE702B9FFDEB2FA82F2DA
:103FC000002A40F09180A1EB0C054FEA1C471FFA34
:103FD0008CFE0121B5FBF7F307FB1350250C45EAD6
:103FE00000450EFB03F0A84208D91CEB050503F1C0
:103FF000FF3802D2A84200F2CB8043462D1AA4B269
:10400000B5FBF7F007FB105544EA05440EFB00FE34
:10401000A64508D91CEB040400F1FF3502D2A645E1
:1040200000F2BB802846A4EB0E0440EA03409EE762
:10403000C1F120078B4022FA07FC4CEA030C20FA5E
:1040400007F405FA01F31C43FD404FEA1C4900FA4E
:1040500001F3B5FBF9F8200C1FFA8CFE09FB18558B
:1040600040EA054508FB0EF0A84202FA01F20BD91E
:104070001CEB050508F1FF3A80F08880A84240F269
:104080008580A8F1020865442D1AA4B2B5FBF9F0A9
:1040900009FB105544EA054500FB0EFEAE4508D964
:1040A0001CEB050500F1FF346CD2AE456AD902382D
:1040B000654440EA0840A0FB0294A5EB0E05A5422A
:1040C000C846A64656D353D05EB1B3EB080265EBA3
:1040D0000E0505FA07F722FA01F3CD401F43C6E9A2
:1040E00000750021BDE8F087C2F1200320FA03F13A
:1040F0000CFA02FC25FA03F395400D434FEA1C47E6
:104100001FFA8CFEB3FBF7F107FB11302B0C43EACF
:10411000004301FB0EF0984204FA02F408D91CEBAC
:10412000030301F1FF382FD298422DD9023963449D
:104130001B1AADB2B3FBF7F007FB103345EA03459A
:1041400000FB0EF3AB4208D91CEB050500F1FF386C
:1041500016D2AB4214D902386544ED1A40EA014147
:1041600038E73146304607E78646E5E61846FAE680
:104170004B45A9D2B9EB020864EB0C0E0138A3E75A
:104180004046EAE7204694E74146D1E7D0467BE740
:10419000023B654432E7084609E76444023842E7D7
:1041A000704700BF4A0011D212F5001211D20DD58E
:1041B0006FF47873B3EB62520ED44FEAC12343F02D
:1041C000004343EA505323FA02F070474FF00000D7
:1041D000704750EA013002D14FF0FF3070474FF086
:1041E00000007047844641EA000313F003036DD1D9
:1041F000403A41D351F8043B40F8043B51F8043BAA
:1042000040F8043B51F8043B40F8043B51F8043BB0
:1042100040F8043B51F8043B40F8043B51F8043BA0
:1042200040F8043B51F8043B40F8043B51F8043B90
:1042300040F8043B51F8043B40F8043B51F8043B80
:1042400040F8043B51F8043B40F8043B51F8043B70
:1042500040F8043B51F8043B40F8043B51F8043B60
:1042600040F8043B51F8043B40F8043B51F8043B50
:1042700040F8043B403ABDD2303211D351F8043BF0
:1042800040F8043B51F8043B40F8043B51F8043B30
:1042900040F8043B51F8043B40F8043B103AEDD29F
:1042A0000C3205D351F8043B40F8043B043AF9D2F0
:1042B000043208D0D2071CBF11F8013B00F8013BC3
:1042C00001D30B8803806046704700BF082A13D3D0
:1042D0008B078DD010F003038AD0C3F10403D21AE8
:1042E000DB071CBF11F8013B00F8013B80D331F81C
:1042F000023B20F8023B7BE7043AD9D3013A11F89C
:10430000013B00F8013BF9D20B7803704B78437006
:104310008B7883706046704700000000000000004A
:10432000000000000000000000000000000000008D
:10433000000000000000000000000000000000007D
:1043400090F800F06DE9024520F007016FF0000CD5
:1043500010F0070491F820F040F049804FF000047D
:104360006FF00700D1E9002391F840F000F1080058
:1043700082FA4CF2A4FA8CF283FA4CF3A2FA8CF390
:104380004BBBD1E9022382FA4CF200F10800A4FAF7
:104390008CF283FA4CF3A2FA8CF3E3B9D1E904234B
:1043A00082FA4CF200F10800A4FA8CF283FA4CF382
:1043B000A2FA8CF37BB9D1E9062301F1200182FA3C
:1043C0004CF200F10800A4FA8CF283FA4CF3A2FA42
:1043D0008CF3002BC6D0002A04BF04301A4612BA50
:1043E000B2FA82F2FDE8024500EBD2007047D1E953
:1043F000002304F00305C4F100004FEAC50514F0E2
:10440000040F91F840F00CFA05F562EA05021CBFB2
:1044100063EA050362464FF00004A9E700000000CC
:1044200001F0FF01102A2BDB10F0070F08D010F865
:10443000013B013A8B422DD010F0070F42B3F6D169
:10444000F0B441EA012141EA014122F007047FF082
:1044500000070023F0E80256083C85EA010586EAD9
:10446000010685FA47F5A3FA87F586FA47F6A5FA15
:1044700087F68EB9EED1F0BC01F0FF0102F0070221
:1044800032B110F8013B013A83EA010313B1F8D1CC
:104490000020704701387047002D06BF35460338AD
:1044A000073815F0010F07D1013015F4807F02BFE6
:1044B000013015F4C03F0130F0BC0138704700BF37
:1044C0004FEA410C7FEA6C5C02D150EA013C0AD110
:1044D0004FEA430C7FEA6C5C02D152EA033C02D102
:1044E0004FF0000070474FF0010070474FEA400264
:1044F0004FEA41037FEA226C02D15FEA402C08D1E7
:104500007FEA236C02D15FEA412C02D14FF0000018
:1045100070474FF0010070477047000010B5AAB017
:1045200004460021259126912791289129918822DE
:1045300003A807F09DFA2268184B9A4201D02AB0CE
:1045400010BD0123039303A801F032F918BB144BEB
:104550001A6E42F480421A661A6E02F48042019288
:10456000019ADA6C42F00102DA64DB6C03F00103B9
:104570000293029B4FF4C0632593022326930023EA
:104580002793032328930723299325A94FF09040CD
:1045900000F0B0F9D3E705F083FCD8E7003801401C
:1045A00000100240FEE7FEE7FEE7FEE7704701204D
:1045B000704708B507F03AF9162303604FF0FF3053
:1045C00008BD08B54FF0FF31FFF7F3FFFEE770B508
:1045D0000C461646002506E0AFF30080214601F8A0
:1045E000010B01350C46B542F6DB304670BD70B5A7
:1045F0000C461646002504E014F8010BAFF30080CA
:104600000135B542F8DB304670BD4FF0FF307047E2
:104610004FF400534B60002070470120704700208A
:104620007047000010B503460C4A0D490D4800685C
:1046300040B10C4800680344521A934206D8094A14
:10464000136010BD0748084C0460F2E707F0EEF86D
:104650000C2303604FF0FF30F3E700BF0080012020
:1046600000040000800D0020C85B0020704700009F
:104670002F4B1B6813F0080F16D12D4BD3F8943035
:10468000C3F303232B4A52F82320294B9B6803F0E2
:104690000C030C2B48D8DFE803F00C4747470F47C3
:1046A0004747134747471700214B1B68C3F30313C2
:1046B000E8E7214B1A6028E01F4B204A1A6024E0EB
:1046C0001D4B1F4A1A6020E0194BD96801F0030105
:1046D000DB68C3F302130133022904D003291FD07E
:1046E000B2FBF3F202E0154AB2FBF3F21049CB68D9
:1046F000C3F3062302FB03F3CA68C2F3416201322B
:104700005200B3FBF2F30C4A1360094B9B68C3F3EE
:1047100003130C4AD15C084A1368CB4013607047FE
:10472000074AB2FBF3F2E1E7034B1A60EDE700BF83
:1047300000100240A82D0108000000200024F40011
:1047400000127A00902D0108DFF834D0FFF78EFFB9
:104750000C480D490D4A002302E0D458C4500433DC
:10476000C4188C42F9D30A4A0A4C002301E01360B2
:104770000432A242FBD307F09FF805F058FEFEE793
:104780000080012000000020380A0020D0860108A7
:10479000380A0020C85B0020FEE70000104B1B78A1
:1047A0000BB90120704710B504464FF47A70B0FB86
:1047B000F3F30C4A1068B0FBF3F000F077F868B937
:1047C0000F2C01D901200AE0002221464FF0FF30D2
:1047D00000F034F8044B1C60002000E0012010BD04
:1047E00004000020000000200800002010B5052073
:1047F00000F012F80020FFF7D1FF10B1012420468D
:1048000010BD0446FFF788FEF9E70000014B186869
:10481000704700BF840D0020074AD36823F4E0638B
:104820001B041B0C000200F4E060034343F0BF6371
:1048300043F40033D360704700ED00E000B5194B3E
:10484000DB68C3F30223C3F1070CBCF1040F28BFDC
:104850004FF0040C03F1040EBEF1060F18D9033B10
:104860004FF0FF3E0EFA0CFC21EA0C0199400EFAC3
:1048700003F322EA0303194300280BDB0901C9B241
:1048800000F1604000F5614080F800135DF804FB22
:104890000023E5E700F00F000901C9B2024B1954EB
:1048A000F4E700BF00ED00E014ED00E00138B0F1E6
:1048B000807F0BD24FF0E0235861054AF02182F847
:1048C00023100020986107221A6170470120704769
:1048D00000ED00E0042806D04FF0E022136923F039
:1048E0000403136170474FF0E022136943F004039F
:1048F0001361704770B582B000236EE085685E007A
:104900000324B44025EA0405CC68B4402C438460F9
:10491000456825EA0C054C68C4F300149C402C4300
:1049200044606DE0C56A25EA0C0CC4F3C0049C40E9
:1049300044EA0C04C46269E0DD08083550F82560DB
:1049400003F007044FEA840C0F2404FA0CF426EA5F
:10495000040E0C6904FA0CF444EA0E0440F82540F5
:104960006CE0062400E0002404FA0EF42C430CF161
:10497000020C5F4D45F82C405E4CA568D44325EAF7
:104980000206D1F804C01CF4801F01D042EA0506DB
:10499000584DAE60ED6804EA0506D1F804C01CF479
:1049A000001F01D042EA0506524DEE606D6804EA30
:1049B0000506D1F804C01CF4003F01D042EA050608
:1049C0004C4D6E602D682C404E6816F4803F01D02F
:1049D00042EA0504474A146001330A6832FA03F4D4
:1049E00000F083804FF0010C0CFA03FC1CEA020279
:1049F000F2D04C6804F00304013C012C7FF67EAF3A
:104A00004C6804F0030EBEF1030F8BD04C6804F029
:104A10000304032C0CD0C4685D004FF0030C0CFAA7
:104A200005FC24EA0C0C8C68AC4044EA0C04C4601D
:104A30004C6804F00304022C3FF47EAF04684FEA94
:104A4000430E4FF0030C0CFA0EFC24EA0C0C4C68DD
:104A500004F0030404FA0EF444EA0C0404604C6805
:104A600014F4403FB8D0244C256E45F0010525666E
:104A7000246E04F001040194019C4FEA930C0CF1A4
:104A800002051B4C54F8255003F003044FEA840E32
:104A90000F2404FA0EF425EA0405B0F1904F3FF418
:104AA00062AF164CA04216D004F58064A04214D028
:104AB00004F58064A04212D004F58064A04210D0B6
:104AC00004F58064A0420ED004F58064A0423FF457
:104AD00048AF072448E7012446E7022444E70324BB
:104AE00042E7042440E705243EE702B070BD00BF62
:104AF0000000014000040140001002400004004892
:104B00000369194201D001207047002070470AB1A3
:104B10008161704781627047024B186800F4C06081
:104B2000704700BF00700040B0F5007F0FD01F4BF2
:104B30001B6803F4C063B3F5806F34D01B4A13685D
:104B400023F4C06343F48063136000207047174B65
:104B50001B6803F4C063B3F5007F20D0134A1368C9
:104B600023F4C06343F400731360114B1B683222BB
:104B700002FB03F30F4AA2FB03239B0C013300E06B
:104B8000013B0A4A526912F4806F01D0002BF7D121
:104B9000064B5B6913F4806F03D10020704700203F
:104BA0007047032070470020704700BF007000402E
:104BB0000000002083DE1B4330B583B00446204B49
:104BC0009B6D13F0805F0BD0FFF7A6FFB0F5007F61
:104BD00017D0802C1FD82DD0702C2DD000211BE099
:104BE000174DAB6D43F08053AB65AB6D03F0805355
:104BF0000193019BFFF790FFAB6D23F08053AB65F2
:104C0000E4E7802C03D9A02C03D9022104E0002181
:104C100002E0012100E003210A4A136823F00703A0
:104C20000B431360136803F007038B4206D1002087
:104C300003B030BD0221EFE70121EDE70120F7E7E6
:104C40000010024000200240284A9368D26802F017
:104C5000030213F00C030AD00C2B06D0042B1FD038
:104C6000082B20D00020024610E0012AF6D11F4A6E
:104C7000126812F0080F0CD11C4AD2F89420C2F32B
:104C800003221B4951F8222043B100200C2B0DD0E8
:104C90007047164A1268C2F30312F2E71046F5E7AE
:104CA00014480022F2E714480022EFE70F4BDB68BC
:104CB00003F00303022B16D0032B00D10E4A0B493D
:104CC000C868C0F30210431CC868C0F3062002FB8A
:104CD00000F0B0FBF3F0CB68C3F3416301335B003A
:104CE000B0FBF3F0D4E7034AE9E700BF001002404D
:104CF000A82D01080024F40000127A00002800F01A
:104D0000F182F0B583B00446964B9D6805F00C0522
:104D1000DE6806F00306036813F0100F5AD0E5B101
:104D20000C2D18D0A369002B00F0BB808D4A1368AE
:104D300043F001031360FFF769FD0746894B1B68C9
:104D400013F0020F40F09A80FFF760FDC01B0228AD
:104D5000F4D90320D1E2012EE4D1824B1B6813F079
:104D6000020F03D0A369002B00F0BE82206A7D4BA6
:104D70001B6813F0080F5BD07A4B1B6803F0F0033D
:104D800098425CD8774B1A6842F008021A601A6899
:104D900022F0F002216A0A431A605A6822F47F4224
:104DA000E16942EA01225A60002D60D0FFF74CFF12
:104DB0006C4B9B68C3F303136B4AD35C03F01F0374
:104DC000D8406A4B18606A4B1868FFF7E7FC002868
:104DD00040F09382236813F0010F00F08180082DCA
:104DE00075D00C2D71D06368B3F5803F00F09780CB
:104DF000B3F5A02F00F099805A4B1A6822F4803244
:104E00001A601A6822F480221A606368002B00F08E
:104E10009980FFF7FBFC0746524B1B6813F4003FD9
:104E20005ED1FFF7F3FCC01B6428F5D9032064E2D0
:104E30004C4BD3F894301B0903F0F003A0E7FFF7C5
:104E4000BBFE002840F05282464B1A6842F008022E
:104E50001A601A6822F0F002216A0A431A605A683E
:104E600022F47F42E16942EA01225A609EE7206A09
:104E7000FFF7A2FE002899D001203EE2394B1A68C4
:104E800042F008021A601A6822F0F002216A0A430E
:104E90001A605A6822F47F42E16942EA01225A60AC
:104EA00098E7304A136823F001031360FFF7AEFC64
:104EB00007462C4B1B6813F0020F8BD0FFF7A6FCA4
:104EC000C01B0228F5D9032017E2032E8BD1254BF6
:104ED0001B6813F4003F03D06368002B00F00882C6
:104EE000236813F0020F58D0042D45D00C2D41D06B
:104EF000E368002B77D01B4A136843F48073136078
:104F0000FFF784FC0646174B1B6813F4806F61D1D2
:104F1000FFF77CFC801B0228F5D90320EDE1114A44
:104F2000136843F4803313606FE703F18043A3F504
:104F30003C331A6842F480221A601A6842F48032C4
:104F40001A6062E7FFF762FC0746064B1B6813F422
:104F5000003FC5D0FFF75AFCC01B6428F5D90320D9
:104F6000CBE100BF00100240902D0108000000209E
:104F700008000020022EBBD1A34B1B6813F4806FE6
:104F800003D0E368002B00F0B5819F4A536823F0FB
:104F9000F853216943EA01635360236813F0080F53
:104FA0004CD063699BB3984AD2F8943043F0010324
:104FB000C2F89430FFF72AFC0646934BD3F894309E
:104FC00013F0020F3AD1FFF721FC801B0228F4D91D
:104FD000032092E18C4A536823F0F853216943EA95
:104FE00001635360D9E7884A136823F48073136020
:104FF000FFF70CFC0646844B1B6813F4806FCCD083
:10500000FFF704FC801B0228F5D9032075E17E4AD6
:10501000D2F8943023F00103C2F89430FFF7F6FB86
:105020000646794BD3F8943013F0020F06D0FFF701
:10503000EDFB801B0228F4D903205EE1236813F006
:10504000040F7AD0704B9B6D13F0805F36D16E4B9E
:105050009A6D42F080529A659B6D03F080530193E4
:10506000019B0126694B1B6813F4807F28D0A3683D
:10507000012B39D0052B3FD0634BD3F8902022F081
:105080000102C3F89020D3F8902022F00402C3F864
:105090009020A368002B3DD0FFF7B8FB07465A4B82
:1050A000D3F8903013F0020F46D1FFF7AFFBC01BCF
:1050B00041F288339842F2D903201EE10026D1E75D
:1050C000524A136843F480731360FFF79FFB07464F
:1050D0004E4B1B6813F4807FC9D1FFF797FBC01BB1
:1050E0000228F5D9032008E1474AD2F8903043F06E
:1050F0000103C2F89030CCE7434BD3F8902042F044
:105100000402C3F89020D3F8902042F00102C3F8C3
:105110009020BEE7FFF77AFB07463B4BD3F8903071
:1051200013F0020F08D0FFF771FBC01B41F2883368
:105130009842F2D90320E0E0EEB9A36A002B00F018
:10514000DB80022B1DD00C2D00F0DD802E4A136871
:1051500023F080731360FFF759FB04462A4B1B684A
:1051600013F0007F00F0B780FFF750FB001B022810
:10517000F4D90320C1E0244A936D23F08053936552
:10518000DBE7214BDB6803F00301E26A91420FD0B9
:105190000C2D00F0B4801C4B1B6813F0806F40F0A6
:1051A000B080194B1B6813F0805F31D00120A4E060
:1051B00003F07002216B0139B2EB011FE8D103F457
:1051C000FE42616BB2EB012FE2D103F40031A26B1E
:1051D000073A18BF01229142DAD103F4C001E26B11
:1051E0005208013AB1EB425FD2D103F0C063226CA6
:1051F0005208013AB3EB426FCAD1034B1B6813F05C
:10520000007F4ED0002078E0001002400070004087
:105210003E4A136823F080731360FFF7F7FA0546E0
:105220003A4B1B6813F0007F06D0FFF7EFFA401BE4
:105230000228F5D9032060E0344AD3683449194084
:10524000E36A206B013843EA0013606B43EA0023F2
:10525000E06B4008013843EA4053206C40080138B5
:1052600043EA4063A06B000943EA40430B43D36029
:10527000136843F080731360D36843F08073D36086
:10528000FFF7C4FA0446214B1B6813F0007F06D1D8
:10529000FFF7BCFA001B0228F5D903202DE00020FF
:1052A0002BE01A4B1A6842F080721A60DA6842F0FA
:1052B0008072DA60FFF7AAFA0446144B1B6813F0F9
:1052C000007F06D1FFF7A2FA031B022BF5D90320BA
:1052D00013E0002011E00D4AD1680E4B0B40D36063
:1052E00000200AE001207047012006E0012004E0D0
:1052F000012002E0012000E0002003B0F0BD012009
:10530000FBE70120F9E70120F7E700BF00100240AA
:105310008C809DF9FCFFEEFE002800F0AF8070B598
:105320000D460446594B1B6803F007038B420BD212
:10533000564A136823F007030B431360136803F006
:1053400007038B4240F09C80236813F0020F0CD0BF
:10535000A2684F4B9B6803F0F0039A4205D94C4971
:105360008B6823F0F0031A438A60236813F0010F5F
:1053700039D06368032B09D0022B26D063BB444A83
:10538000126812F0020F06D1012076E0404A12683E
:1053900012F0007F76D03E498A6822F00302134360
:1053A0008B60FFF733FA0646394B9B6803F00C031A
:1053B0006268B3EB820F16D0FFF728FA801B41F228
:1053C00088339842F0D9032057E0314A126812F42A
:1053D000003FE0D1012050E02D4A126812F4806FA6
:1053E000D9D1012049E0236813F0020F0CD0A26844
:1053F000274B9B6803F0F0039A4205D224498B683F
:1054000023F0F0031A438A60204B1B6803F0070364
:10541000AB420AD91D4A136823F007032B431360DC
:10542000136803F00703AB422ED1236813F0040F77
:1054300006D0174A936823F4E063E1680B43936056
:10544000236813F0080F07D0114A936823F46053C0
:10545000216943EAC1039360FFF7F6FB0C4B9B689D
:10546000C3F303130B4AD35C03F01F03D8400A4B6A
:1054700018600A4B1868FFF791F970BD012070475A
:105480000120FAE70120F8E70120F6E700200240BA
:1054900000100240902D01080000002008000020AC
:1054A000014B1868704700BF0000002008B5FFF7E7
:1054B000F7FF054B9B68C3F30223044AD35C03F058
:1054C0001F03D84008BD00BF00100240A02D0108F6
:1054D00008B5FFF7E5FF054B9B68C3F3C223044AF9
:1054E000D35C03F01F03D84008BD00BF001002408A
:1054F000A02D0108F8B504460F46594BDB6813F0A0
:10550000030F18D0564BDB6803F003030268934285
:1055100002D001252846F8BD002A00F09E80504B9D
:10552000DB68C3F3021301334268934201D00125C3
:10553000F0E7002509E00368022B57D0032B5CD06D
:10554000012B42D00125002DE4D1454A136823F0F8
:1055500080631360FFF75AF90646414B1B6813F04E
:10556000006F05D0FFF752F9831B022BF5D90325F5
:10557000002DCFD1002F4ED139490B6923F41F33B1
:1055800023F44073A068E2681209520442EA002240
:1055900013430B61324A136843F080631360FFF7D3
:1055A00035F906462E4B1B6813F0006F05D1FFF747
:1055B0002DF9831B022BF5D90325002DAAD1284AEA
:1055C0001369A1690B431361A4E7254A126812F01D
:1055D000020F1ED02248C26822F0730261680139AE
:1055E00043EA01131343C3600025ACE71C4A126869
:1055F00012F4806FEED10125A5E7194A126812F462
:10560000003FE7D1164A126812F4802FE2D101253B
:1056100099E7012597E7012F0FD01148026922F081
:10562000C06222F4FE42A16863695B08013B5B062D
:1056300043EA012313430361ACE70948026922F4FA
:10564000C00222F4FE42A16823695B08013B5B05AE
:1056500043EA0123134303619CE701255AE700BF96
:1056600000100240F8B504460F46504BDB6813F0BB
:10567000030F18D04D4BDB6803F00303026893421D
:1056800002D001252846F8BD002A00F08C80474B47
:10569000DB68C3F3021301334268934201D0012552
:1056A000F0E7002509E00368022B57D0032B5CD0FC
:1056B000012B42D00125002DE4D13C4A136823F090
:1056C00080531360FFF7A2F80646384B1B6813F0AF
:1056D000005F05D0FFF79AF8831B022BF5D903254D
:1056E000002DCFD1002F4ED130494B6923F41F3309
:1056F00023F44073A068E2681209520442EA0022CF
:1057000013434B61294A136843F080531360FFF73A
:105710007DF80646254B1B6813F0005F05D1FFF7A7
:1057200075F8831B022BF5D90325002DAAD11F4A3A
:10573000536961690B435361A4E71C4A126812F074
:10574000020F1ED01948C26822F073026168013945
:1057500043EA01131343C3600025ACE7134A126800
:1057600012F4806FEED10125A5E7104A126812F4F9
:10577000003FE7D10D4A126812F4802FE2D10125D3
:1057800099E7012597E70948426922F0C06222F4AF
:10579000FE42A16823695B08013B5B0643EA0123E3
:1057A00013434361AEE701256CE700BF00100240E0
:1057B0002DE9F04182B00446036813F4006F33D042
:1057C000436EB3F5000F1FD00CD823B3B3F5800F91
:1057D00005D100212030FFF745FF064620E00127D4
:1057E0003E4623E0B3F5400F0BD10026604AD2F8C5
:1057F000883023F44003616E0B43C2F888300027E1
:1058000014E001273E4611E0594AD36843F480333F
:10581000D3600026EAE700210430FFF76BFE06465E
:10582000002EE3D0374601E000273E46236813F4FC
:10583000805F30D0A36EB3F1007F1FD00DD81BB3B3
:10584000B3F1807F06D1002104F12000FFF70AFFA9
:10585000064605E001273E461DE0B3F1407F0AD130
:10586000C6B9434AD2F8883023F04073A16E0B4387
:10587000C2F888300FE001273E460CE03C4AD3686E
:1058800043F48033D360EBE70021201DFFF732FEA5
:105890000646E5E73746236813F4003F71D0344BE2
:1058A0009B6D13F0805F4ED1314B9A6D42F0805268
:1058B0009A659B6D03F080530193019B4FF00108A3
:1058C0002C4A136843F480731360FEF79FFF05466C
:1058D000284B1B6813F4807F05D1FEF797FF401B10
:1058E0000228F5D90326002E46D1214BD3F890305B
:1058F00013F4407316D0D4F884209A4212D01C4A74
:10590000D2F8903023F44073D2F8901041F48031F3
:10591000C2F89010D2F8901021F48031C2F89010A3
:10592000C2F8903013F0010F10D1002E40F0278103
:105930000F4AD2F8903023F44073D4F884100B430C
:10594000C2F8903019E04FF00008B9E7FEF75EFFAB
:105950000546074BD3F8903013F0020FE5D1FEF760
:1059600055FF401B41F288339842F2D90326DCE709
:1059700000100240007000403746B8F1000F40F0C0
:105980000081236813F0010F08D09D4AD2F88830B7
:1059900023F00303A16B0B43C2F88830236813F094
:1059A000020F08D0964AD2F8883023F00C03E16B3E
:1059B0000B43C2F88830236813F0040F08D0904AD4
:1059C000D2F8883023F03003216C0B43C2F88830C2
:1059D000236813F0080F08D0894AD2F8883023F0E2
:1059E000C003616C0B43C2F88830236813F0100FBA
:1059F00008D0834AD2F8883023F44073A16C0B435B
:105A0000C2F88830236813F0200F08D07C4AD2F8FF
:105A1000883023F44063E16C0B43C2F8883023687C
:105A200013F4007F08D0764AD2F8883023F440235C
:105A3000E16D0B43C2F88830236813F4806F08D0FF
:105A40006F4AD2F8883023F44013216E0B43C2F81A
:105A50008830236813F0400F08D0694AD2F88830A4
:105A600023F44053216D0B43C2F88830236813F0B0
:105A7000800F08D0624AD2F8883023F44043616D29
:105A80000B43C2F88830236813F4807F08D05C4A47
:105A9000D2F8883023F44033A16D0B43C2F888302C
:105AA000236813F4005F0FD0554AD2F8883023F0F2
:105AB0004063E16E0B43C2F88830E36EB3F1006FD0
:105AC00065D0B3F1806F67D0236813F4002F0FD037
:105AD0004B4AD2F8883023F04063216F0B43C2F861
:105AE0008830236FB3F1006F5ED0B3F1806F60D068
:105AF000236813F4802F0FD0414AD2F8883023F066
:105B00004063616F0B43C2F88830636FB3F1006F7D
